:100000000C945D000C9485000C9485000C94850084
:100010000C9485000C9485000C9485000C9485004C
:100020000C9485000C9485000C9485000C9485003C
:100030000C9485000C9485000C9485000C9485002C
:100040000C94AB020C9485000C9419030C94F302ED
:100050000C9485000C9485000C9485000C9485000C
:100060000C9485000C94850000000008000201003B
:100070000003040700000000000000000000000072
:10008000250028002B0000000000240027002A0083
:10009000040404040404040402020202020203032E
:1000A0000303030301020408102040800102040836
:1000B00010200102040810206E0511241FBECFEF8E
:1000C000D8E0DEBFCDBF11E0A0E0B1E0ECECF0E1A4
:1000D00002C005900D92AA36B107D9F726E0AAE62C
:1000E000B1E001C01D92A232B207E1F710E0CDE508
:1000F000D0E004C02197FE010E949B05CC35D107BA
:10010000C9F70E9446030C945D080C94000090E02F
:10011000FC01EC55FF4F249180579F4FFC018491C7
:10012000882399F090E0880F991FFC01EA57FF4F50
:10013000A591B491FC01E458FF4F859194918FB73C
:10014000F894EC91E22BEC938FBF089590E0FC01C2
:10015000E859FF4F2491FC01EC55FF4F3491FC010D
:10016000E057FF4FE491EE23D9F0222349F02430E9
:1001700031F1B8F4223059F12330D9F0213019F19E
:10018000F0E0EE0FFF1FE458FF4FA591B4918FB739
:10019000F894EC91611124C030953E233C938FBFBD
:1001A00008952730B9F0283059F78091B0008F7D3D
:1001B00014C0809180008F7780938000E1CF809180
:1001C00080008F7DF9CF84B58F7784BDD9CF84B57A
:1001D0008F7DFBCF8091B0008F778093B000D0CF20
:1001E0003E2BDCCF789484B5826084BD84B5816079
:1001F00084BD85B5826085BD85B5816085BDEEE62F
:10020000F0E0808181608083E1E8F0E0108280810D
:1002100082608083808181608083E0E8F0E080817B
:1002200081608083E1EBF0E0808184608083E0EB9B
:10023000F0E0808181608083EAE7F0E08081846083
:1002400080838081826080838081816080838081DF
:10025000806880831092C1000895CF93DF9300D00F
:1002600000D0CDB7DEB73FB7F894809118069091D3
:100270001906A0911A06B0911B0626B5A89B05C0C9
:100280002F3F19F00196A11DB11D3FBFBA2FA92F15
:10029000982F8827820F911DA11DB11D9C01AD01D2
:1002A00062E0220F331F441F551F6A95D1F7CA0120
:1002B000B9010F900F900F900F90DF91CF9108959B
:1002C0008F929F92AF92BF92CF92DF92EF92FF9266
:1002D000CF93DF9300D000D0CDB7DEB70E942D01C1
:1002E0006B017C0192E0892E912CA12CB12C0E94F3
:1002F0002D01DC01CB018C199D09AE09BF09883E97
:100300009340A105B10598F328EEC20E23E0D21E5A
:10031000E11CF11C8A9489288A288B2829F0812CD9
:10032000912C54018394E3CF0F900F900F900F9076
:10033000DF91CF91FF90EF90DF90CF90BF90AF9083
:100340009F908F900895CF92DF92EF92FF920F933C
:100350001F93CF93DF937C016A0110E000E00C153E
:100360001D0581F0EB01D701ED91FC910190F08129
:10037000E02D6991C7010995892B21F00F5F1F4F6F
:10038000BE01EDCFC801DF91CF911F910F91FF907A
:10039000EF90DF90CF900895FC01538D448D252F71
:1003A00030E0842F90E0821B930B541710F0CF960F
:1003B000089501970895FC01918D828D981761F041
:1003C000A28DAE0FBF2FB11D5D968C91928D9F5F58
:1003D0009F73928F90E008958FEF9FEF0895FC0137
:1003E000918D828D981731F0828DE80FF11D858DEA
:1003F00090E008958FEF9FEF0895FC01818D228D8D
:1004000090E0805C9F4F821B91098F73992708951C
:100410008EE691E00E94FD019C0181E0232B09F40E
:1004200080E0089580E090E0892B29F00E94080286
:1004300081110C9400000895FC01A48DA80FB92F20
:10044000B11DA35ABF4F2C91848D90E001968F73FC
:100450009927848FA689B7892C93A089B1898C911B
:10046000837080648C93938D848D981306C002886A
:10047000F389E02D80818F7D80830895EF92FF9234
:100480000F931F93CF93DF93EC01F62E81E0888FBB
:100490009B8D8C8D98131AC0E889F989808185FF1E
:1004A00015C09FB7F894EE89FF896083E889F989C0
:1004B00080818370806480839FBF81E090E0DF91C2
:1004C000CF911F910F91FF90EF9008950B8D10E049
:1004D0000F5F1F4F0F731127E02E8C8D8E110CC0F4
:1004E0000FB607FCFACFE889F989808185FFF5CF3F
:1004F000CE010E941C02F1CFEB8DEC0FFD2FF11D00
:10050000E35AFF4FF0829FB7F8940B8FEA89FB897B
:1005100080818062D0CFCF93DF93EC01888D8823D8
:10052000B9F0AA89BB89E889F9898C9185FD03C056
:10053000808186FD0DC00FB607FCF7CF8C9185FF3B
:10054000F2CF808185FFEDCFCE010E941C02E9CF62
:10055000DF91CF9108951F921FB61F9211242F9300
:100560003F938F939F93AF93BF9380911406909185
:100570001506A0911606B09117063091130623E0D8
:10058000230F2D3750F50196A11DB11D20931306A1
:100590008093140690931506A0931606B093170641
:1005A0008091180690911906A0911A06B0911B0629
:1005B0000196A11DB11D8093180690931906A09372
:1005C0001A06B0931B06BF91AF919F918F913F91F7
:1005D0002F911F901FBE1F90189526E8230F02969B
:1005E000A11DB11DD3CF1F920F920FB60F921124F0
:1005F0002F933F934F935F936F937F938F939F932B
:10060000AF93BF93EF93FF938EE691E00E941C029D
:10061000FF91EF91BF91AF919F918F917F916F91DA
:100620005F914F913F912F910F900FBE0F901F90B0
:1006300018952F932FB72F938F939F93EF93FF933B
:10064000E0917E01F0917F018081E0918401F09141
:10065000850182FD19C09081809187018F5F8F7322
:1006600020918801821741F0E0918701F0E0E25982
:10067000FE4F958F80938701FF91EF919F918F910E
:100680002F912FBF2F9118958081F6CF0E94F200F5
:1006900082E00E94870083E00E94870085E00E943C
:1006A000870086E00E94870087E00E94870088E03C
:1006B0000E94870089E00E9487008AE00E948700EC
:1006C0008BE00E9487008CE00E948700109212024B
:1006D000109211021092100210920F0210920E024C
:1006E00010920D0281E090E090930C0280930B0237
:1006F000E0917E01F0917F0182E08083E0917A01B8
:10070000F0917B011082E0917C01F0917D018FECF2
:10071000808310928601E0918201F091830186E04E
:100720008083E0918001F0918101808180618083EC
:10073000E0918001F0918101808188608083E09167
:100740008001F0918101808180688083E091800147
:10075000F091810180818F7D8083E0916E01F09125
:100760006F010280F381E02D46E050E062E171E02C
:100770008EE691E00995E0916E01F0916F010280A3
:10078000F381E02D42E050E069E171E08EE691E016
:100790000995A0910D02B0910E0280910B029091EB
:1007A0000C02C3E1D2E0AE0130E020E0BA01F9E092
:1007B000CF2ED12CE1E0CE1AD108A9F07B01A9E01F
:1007C000B0E0119759F0F701119211927F0101E009
:1007D00010E0892B09F000E0C801F3CF605F7F4F84
:1007E000A8E0B0E0E7CF40585F4F285F3F4F20348C
:1007F0003105E1F6B0930E02A0930D0290930C0226
:1008000080930B0288E090E09093100280930F0297
:1008100090931202809311028FEF9FEF90936D01DE
:1008200080936C0110926B0110926A011F921F92CB
:100830008F938F938CE191E09F938F930E94D805C3
:1008400080916A0190916B01019690936B01809366
:100850006A0133E9E32E32E0F32E03E113E063E9AA
:1008600073E043E154E023E934E0A3E1B5E0E3E9D8
:10087000CE2EE5E0DE2E0F900F900F900F900F9090
:100880000F9081E090E0998388839B838A839D8386
:100890008C839F838E83998788879B878A879D8790
:1008A0008C871F861E86F7019183808393838283C2
:1008B00095838483978386839187808793878287B4
:1008C0001586148617861686F80191838083938394
:1008D0008283958384839783868391878087138619
:1008E00012861586148617861686FB0191838083EF
:1008F000938382839583848397838683118610866E
:10090000138612861586148617861686FA01918339
:10091000808393838283958384839783868391875F
:100920008087938782879587848717861686F90143
:100930009183808393838283958384839783868343
:1009400091878087938782871586148617861686F7
:1009500011969C938E9313969C938E931297159653
:100960009C938E93149717969C938E931697199633
:100970009C938E9318971B961C921E921A971D9605
:100980001C921E921C971F961C921E921E97F60197
:1009900091838083938382839583848397838683E3
:1009A000118610861386128615861486178616867B
:1009B0006096F0E1EF0EF11C005F1F4F605F7F4F0C
:1009C000405F5F4F205F3F4F5096E0E1CE0ED11C5D
:1009D000F2E0C339DF0709F056CF20E0622E20E0B5
:1009E000722E03E812E0D0E0C0E060E085E00E94F3
:1009F000A60060E086E00E94A60060E087E00E941A
:100A0000A60060E088E00E94A60060E089E00E9405
:100A1000A60060E08AE00E94A60060E08BE00E94F1
:100A2000A60060E08CE00E94A600680197E0E92E35
:100A3000F12C460187E0A82EB12CF401668583E0F5
:100A40000E94A60061E082E00E94A60060E082E0D1
:100A50000E94A600F1E0AF1AB10882E0881A91085E
:100A6000EFEFAE16BE0649F7F1E0EF1AF10880E1AC
:100A7000C81AD108EFEFEE16FE06D9F6FE0131973F
:100A800061E085E0E730F10530F4E15AF74F61E0CD
:100A90000C949B0586E00E94A6000E9460012196AE
:100AA00000581F4FC830D10509F09FCF6114710461
:100AB00009F497CF0E940802882309F492CF0E947C
:100AC00000008FCF87E0E7CF88E0E5CF89E0E3CF74
:100AD0008AE0E1CF8BE0DFCF8CE0DDCFEEE6F1E026
:100AE0001382128288EE93E0A0E0B0E084839583C5
:100AF000A683B78384E091E09183808385EC90E0C6
:100B00009587848784EC90E09787868780EC90E0D7
:100B1000918B808B81EC90E0938B828B82EC90E0C8
:100B2000958B848B86EC90E0978B868B118E128E42
:100B3000138E148E0895EE0FFF1F0590F491E02D93
:100B400009942F923F924F925F926F927F928F9271
:100B50009F92AF92BF92CF92DF92EF92FF920F934C
:100B60001F93CF93DF93CDB7DEB7CA1BDB0B0FB656
:100B7000F894DEBF0FBECDBF09942A883988488813
:100B80005F846E847D848C849B84AA84B984C884A9
:100B9000DF80EE80FD800C811B81AA81B981CE0FA0
:100BA000D11D0FB6F894DEBF0FBECDBFED01089585
:100BB000B0E0A0E0EEEDF5E00C94B105AE014B5FC6
:100BC0005F4FFA0161917191AF0180911E06909182
:100BD0001F060E94EE05E2E00C94CD05ABE0B0E00C
:100BE000E4EFF5E00C94A1057C013B018A01FC01D6
:100BF00017821682838181FFB9C19AE0292ECE0126
:100C000001965C01F7019381F30193FD859193FFB8
:100C100081913F01882309F446C1853239F493FD5F
:100C2000859193FF81913F01853229F4B70190E0CE
:100C30000E94CF07E7CF912C412C512CFFE1F515F5
:100C400038F08B3209F188F4803201F1833221F1DE
:100C500057FC3AC020ED280F2A3040F556FE1FC041
:100C6000929C200D1124922E06C08D3291F080337B
:100C700079F7689450F8F30193FD859193FF819182
:100C80003F018111DBCF20C0689451F8689452F87D
:100C9000F2CF689453F8EFCF689454F8ECCF429CAD
:100CA000200D1124422E689455F8E5CF8E3229F498
:100CB00056FCF9C0689456F8DECF8C3619F4689467
:100CC00057F8D9CF8836B9F2982F9F7D9554933035
:100CD000C0F08336A1F18337C1F1833509F05BC0E1
:100CE000F801C190D1908F01692D70E056FC02C0CF
:100CF0006FEF7FEFC6010E94B9074C01689457F867
:100D00000AC00C5F1F4F2FE3298388248394912C02
:100D10006501E89457F853FC04C04814190409F01D
:100D200018F5342C8114910431F5332009F46ACF7D
:100D3000B70180E290E00E94CF073A94F6CFF80125
:100D4000808189830E5F1F4FE0CFF801C190D19061
:100D50008F01692D70E056FC02C06FEF7FEFC60176
:100D60000E94C4074C01D5CFB70180E290E00E94F9
:100D7000CF074A94D2CFF60157FC859157FE819157
:100D80006F01B70190E00E94CF0731103A94F1E073
:100D90008F1A9108C7CF843619F0893609F074C0CC
:100DA000F80157FE6AC061917191819191918F0113
:100DB000252D2F76D22E97FF09C09095809570959E
:100DC00061957F4F8F4F9F4F6894D7F82AE030E0AE
:100DD000A5010E94FF07C82ECA188C2C5D2CD6FED8
:100DE0000CC0E89450F8C91440F4D4FE05C0D2FCFD
:100DF00003C0FD2DFE7E5F2E892C54FE8FC0FE01A8
:100E0000EC0DF11D8081803309F081C0252D297EF4
:100E1000522E852D8870382E53FC8FC050FE89C00D
:100E20009C2C841418F44C0C942C981854FE8BC0F1
:100E3000B70180E390E00E94CF0752FE09C088E727
:100E400090E051FE02C088E590E0B7010E94CF0714
:100E5000C91408F484C0CA94D12C9FEFC91AD90AC6
:100E6000CA0CDB1CF60182916F01B70190E00E9471
:100E7000CF07AC14BD04B1F758CF61917191072E23
:100E8000000C880B990B93CFD52CE894D4F82AE06A
:100E900030E0853739F1952D997FD92E8F3601F1C4
:100EA00048F48835A9F0F701868197812B96E2E115
:100EB0000C94BD05803749F08837A9F7D4FE02C0ED
:100EC0006894D2F820E130E00DC06894D4F8F6CFF1
:100ED00054FE03C0E92FE660DE2E20E132E002C0BE
:100EE00028E030E0F801D7FE0DC061917191819149
:100EF00091918F01A5010E94FF07C82ECA18E8949E
:100F0000D7F86BCF6191719190E080E0F2CF52FC05
:100F100002C083947ECF839483947BCF852D867883
:100F200009F477CFF6CFB70180E290E00E94CF07B7
:100F300083948414C0F3312C79CF342C3818841462
:100F400008F474CFF8CF852D867809F481CF8BE231
:100F500051FE80E257FC8DE2B70190E077CFB701F8
:100F600080E390E00E94CF079A9472CF8FEF9FEFBB
:100F70009DCFFC010590615070400110D8F780951D
:100F800090958E0F9F1F0895FC0161507040019055
:100F90000110D8F7809590958E0F9F1F08950F939D
:100FA0001F93CF93DF93182F092FEB018B8181FDC6
:100FB00009C01FEF0FEF812F902FDF91CF911F916D
:100FC0000F91089582FF14C02E813F818C819D81F5
:100FD000281739073CF4E881F981CF0101969983FC
:100FE000888310838E819F8101969F838E83E3CFB8
:100FF000E885F985812F0995892BA1F3DACFFA01CC
:10100000AA27283051F1203181F1E8946F936E7F47
:101010006E5F7F4F8F4F9F4FAF4FB1E03ED0B4E038
:101020003CD0670F781F891F9A1FA11D680F791F79
:101030008A1F911DA11D6A0F711D811D911DA11D8A
:1010400020D009F468943F912AE0269F112430199A
:10105000305D3193DEF6CF010895462F4770405D35
:101060004193B3E00FD0C9F7F6CF462F4F70405DE4
:101070004A3318F0495D31FD4052419302D0A9F73F
:10108000EACFB4E0A6959795879577956795BA9539
:10109000C9F700976105710508959B01AC010A2EFF
:1010A00006945795479537952795BA95C9F7620FD6
:1010B000731F841F951FA01D0895F894FFCF4A0544
:0C10C00062056405660568056A056C059C
:1010CC00000000003E02A301CC018B02FD01DB01FC
:1010DC00EF0161626572746F000D0A000A0A0A5B07
:1010EC0052657175697369C3A7C3A36F20646520CA
:1010FC006672616D655D204672616D6520656D205F
:10110C006578696269C3A7C3A36F3A2025643B2045
:10111C00204672616D6520726571756973697461C1
:0A112C00646F3A2025640A0A0000EF
:00000001FF
